{
    "abi": [
        {
            "type": "function",
            "name": "balances",
            "inputs": [
                {
                    "name": "",
                    "type": "address",
                    "internalType": "address"
                }
            ],
            "outputs": [
                {
                    "name": "",
                    "type": "uint256",
                    "internalType": "uint256"
                }
            ],
            "stateMutability": "view"
        },
        {
            "type": "function",
            "name": "deposit",
            "inputs": [],
            "outputs": [],
            "stateMutability": "payable"
        },
        {
            "type": "function",
            "name": "flip",
            "inputs": [
                {
                    "name": "guess",
                    "type": "uint8",
                    "internalType": "enum CoinFlip.CoinGuess"
                },
                {
                    "name": "amount",
                    "type": "uint256",
                    "internalType": "uint256"
                }
            ],
            "outputs": [],
            "stateMutability": "nonpayable"
        },
        {
            "type": "function",
            "name": "getBalance",
            "inputs": [
                {
                    "name": "check",
                    "type": "address",
                    "internalType": "address"
                }
            ],
            "outputs": [
                {
                    "name": "",
                    "type": "uint256",
                    "internalType": "uint256"
                }
            ],
            "stateMutability": "view"
        },
        {
            "type": "function",
            "name": "withdraw",
            "inputs": [
                {
                    "name": "amount",
                    "type": "uint256",
                    "internalType": "uint256"
                }
            ],
            "outputs": [],
            "stateMutability": "nonpayable"
        },
        {
            "type": "event",
            "name": "GameResult",
            "inputs": [
                {
                    "name": "player",
                    "type": "address",
                    "indexed": false,
                    "internalType": "address"
                },
                {
                    "name": "win",
                    "type": "bool",
                    "indexed": false,
                    "internalType": "bool"
                },
                {
                    "name": "guess",
                    "type": "uint8",
                    "indexed": false,
                    "internalType": "enum CoinFlip.CoinGuess"
                }
            ],
            "anonymous": false
        }
    ],
    "bytecode": {
        "object": "0x6080604052348015600e575f5ffd5b506109e38061001c5f395ff3fe608060405260043610610049575f3560e01c806324e2b6631461004d57806327e235e3146100755780632e1a7d4d146100b1578063d0e30db0146100d9578063f8b2cb4f146100e3575b5f5ffd5b348015610058575f5ffd5b50610073600480360381019061006e9190610566565b61011f565b005b348015610080575f5ffd5b5061009b600480360381019061009691906105fe565b610305565b6040516100a89190610638565b60405180910390f35b3480156100bc575f5ffd5b506100d760048036038101906100d29190610651565b610319565b005b6100e1610431565b005b3480156100ee575f5ffd5b50610109600480360381019061010491906105fe565b6104c7565b6040516101169190610638565b60405180910390f35b805f5f3373ffffffffffffffffffffffffffffffffffffffff1673ffffffffffffffffffffffffffffffffffffffff1681526020019081526020015f2054101561019e576040517f08c379a0000000000000000000000000000000000000000000000000000000008152600401610195906106d6565b60405180910390fd5b5f600242336040516020016101b4929190610759565b604051602081830303815290604052805190602001205f1c6101d691906107b1565b60018111156101e8576101e76107e1565b5b90505f8360018111156101fe576101fd6107e1565b5b826001811115610211576102106107e1565b5b149050801561027157825f5f3373ffffffffffffffffffffffffffffffffffffffff1673ffffffffffffffffffffffffffffffffffffffff1681526020019081526020015f205f828254610265919061083b565b925050819055506102c4565b825f5f3373ffffffffffffffffffffffffffffffffffffffff1673ffffffffffffffffffffffffffffffffffffffff1681526020019081526020015f205f8282546102bc919061086e565b925050819055505b7f7c336d509ed5953b5ea684ef609b4850517db643a17812da38fca1be0d7bcaf03382866040516102f793929190610910565b60405180910390a150505050565b5f602052805f5260405f205f915090505481565b805f5f3373ffffffffffffffffffffffffffffffffffffffff1673ffffffffffffffffffffffffffffffffffffffff1681526020019081526020015f20541015610398576040517f08c379a000000000000000000000000000000000000000000000000000000000815260040161038f906106d6565b60405180910390fd5b805f5f3373ffffffffffffffffffffffffffffffffffffffff1673ffffffffffffffffffffffffffffffffffffffff1681526020019081526020015f205f8282546103e3919061086e565b925050819055503373ffffffffffffffffffffffffffffffffffffffff166108fc8290811502906040515f60405180830381858888f1935050505015801561042d573d5f5f3e3d5ffd5b5050565b5f3411610473576040517f08c379a000000000000000000000000000000000000000000000000000000000815260040161046a9061098f565b60405180910390fd5b345f5f3373ffffffffffffffffffffffffffffffffffffffff1673ffffffffffffffffffffffffffffffffffffffff1681526020019081526020015f205f8282546104be919061083b565b92505081905550565b5f5f5f8373ffffffffffffffffffffffffffffffffffffffff1673ffffffffffffffffffffffffffffffffffffffff1681526020019081526020015f20549050919050565b5f5ffd5b6002811061051c575f5ffd5b50565b5f8135905061052d81610510565b92915050565b5f819050919050565b61054581610533565b811461054f575f5ffd5b50565b5f813590506105608161053c565b92915050565b5f5f6040838503121561057c5761057b61050c565b5b5f6105898582860161051f565b925050602061059a85828601610552565b9150509250929050565b5f73ffffffffffffffffffffffffffffffffffffffff82169050919050565b5f6105cd826105a4565b9050919050565b6105dd816105c3565b81146105e7575f5ffd5b50565b5f813590506105f8816105d4565b92915050565b5f602082840312156106135761061261050c565b5b5f610620848285016105ea565b91505092915050565b61063281610533565b82525050565b5f60208201905061064b5f830184610629565b92915050565b5f602082840312156106665761066561050c565b5b5f61067384828501610552565b91505092915050565b5f82825260208201905092915050565b7f4e6f7420656e6f7567682062616c616e636500000000000000000000000000005f82015250565b5f6106c060128361067c565b91506106cb8261068c565b602082019050919050565b5f6020820190508181035f8301526106ed816106b4565b9050919050565b5f819050919050565b61070e61070982610533565b6106f4565b82525050565b5f8160601b9050919050565b5f61072a82610714565b9050919050565b5f61073b82610720565b9050919050565b61075361074e826105c3565b610731565b82525050565b5f61076482856106fd565b6020820191506107748284610742565b6014820191508190509392505050565b7f4e487b71000000000000000000000000000000000000000000000000000000005f52601260045260245ffd5b5f6107bb82610533565b91506107c683610533565b9250826107d6576107d5610784565b5b828206905092915050565b7f4e487b71000000000000000000000000000000000000000000000000000000005f52602160045260245ffd5b7f4e487b71000000000000000000000000000000000000000000000000000000005f52601160045260245ffd5b5f61084582610533565b915061085083610533565b92508282019050808211156108685761086761080e565b5b92915050565b5f61087882610533565b915061088383610533565b925082820390508181111561089b5761089a61080e565b5b92915050565b6108aa816105c3565b82525050565b5f8115159050919050565b6108c4816108b0565b82525050565b600281106108db576108da6107e1565b5b50565b5f8190506108eb826108ca565b919050565b5f6108fa826108de565b9050919050565b61090a816108f0565b82525050565b5f6060820190506109235f8301866108a1565b61093060208301856108bb565b61093d6040830184610901565b949350505050565b7f4d7573742073656e6420455448000000000000000000000000000000000000005f82015250565b5f610979600d8361067c565b915061098482610945565b602082019050919050565b5f6020820190508181035f8301526109a68161096d565b905091905056fea2646970667358221220832e49d281386dc87498bf2506c5e425d1696cc9996f3ec43f08f5bae421a75c64736f6c634300081e0033",
        "linkReferences": {}
    },
    "methodIdentifiers": {
        "balances(address)": "27e235e3",
        "deposit()": "d0e30db0",
        "flip(uint8,uint256)": "24e2b663",
        "getBalance(address)": "f8b2cb4f",
        "withdraw(uint256)": "2e1a7d4d"
    },
    "id": 0
}